{
  "_format": "hh-sol-artifact-1",
  "contractName": "NFTMarketplace",
  "sourceName": "contracts/NFTMarket.sol",
  "abi": [
    {
      "inputs": [],
      "stateMutability": "nonpayable",
      "type": "constructor"
    },
    {
      "anonymous": false,
      "inputs": [
        {
          "indexed": true,
          "internalType": "address",
          "name": "owner",
          "type": "address"
        },
        {
          "indexed": true,
          "internalType": "address",
          "name": "approved",
          "type": "address"
        },
        {
          "indexed": true,
          "internalType": "uint256",
          "name": "tokenId",
          "type": "uint256"
        }
      ],
      "name": "Approval",
      "type": "event"
    },
    {
      "anonymous": false,
      "inputs": [
        {
          "indexed": true,
          "internalType": "address",
          "name": "owner",
          "type": "address"
        },
        {
          "indexed": true,
          "internalType": "address",
          "name": "operator",
          "type": "address"
        },
        {
          "indexed": false,
          "internalType": "bool",
          "name": "approved",
          "type": "bool"
        }
      ],
      "name": "ApprovalForAll",
      "type": "event"
    },
    {
      "anonymous": false,
      "inputs": [
        {
          "indexed": true,
          "internalType": "uint256",
          "name": "tokenId",
          "type": "uint256"
        },
        {
          "indexed": false,
          "internalType": "address",
          "name": "seller",
          "type": "address"
        },
        {
          "indexed": false,
          "internalType": "address",
          "name": "owner",
          "type": "address"
        },
        {
          "indexed": false,
          "internalType": "uint256",
          "name": "price",
          "type": "uint256"
        },
        {
          "indexed": false,
          "internalType": "bool",
          "name": "sold",
          "type": "bool"
        }
      ],
      "name": "MarketItemCreated",
      "type": "event"
    },
    {
      "anonymous": false,
      "inputs": [
        {
          "indexed": true,
          "internalType": "address",
          "name": "from",
          "type": "address"
        },
        {
          "indexed": true,
          "internalType": "address",
          "name": "to",
          "type": "address"
        },
        {
          "indexed": true,
          "internalType": "uint256",
          "name": "tokenId",
          "type": "uint256"
        }
      ],
      "name": "Transfer",
      "type": "event"
    },
    {
      "inputs": [
        {
          "internalType": "address",
          "name": "to",
          "type": "address"
        },
        {
          "internalType": "uint256",
          "name": "tokenId",
          "type": "uint256"
        }
      ],
      "name": "approve",
      "outputs": [],
      "stateMutability": "nonpayable",
      "type": "function"
    },
    {
      "inputs": [
        {
          "internalType": "address",
          "name": "owner",
          "type": "address"
        }
      ],
      "name": "balanceOf",
      "outputs": [
        {
          "internalType": "uint256",
          "name": "",
          "type": "uint256"
        }
      ],
      "stateMutability": "view",
      "type": "function"
    },
    {
      "inputs": [
        {
          "internalType": "uint256",
          "name": "tokenId",
          "type": "uint256"
        }
      ],
      "name": "cancelItemListing",
      "outputs": [],
      "stateMutability": "nonpayable",
      "type": "function"
    },
    {
      "inputs": [
        {
          "internalType": "uint256",
          "name": "tokenId",
          "type": "uint256"
        }
      ],
      "name": "createMarketSale",
      "outputs": [],
      "stateMutability": "payable",
      "type": "function"
    },
    {
      "inputs": [
        {
          "internalType": "string",
          "name": "tokenURI",
          "type": "string"
        },
        {
          "internalType": "uint256",
          "name": "price",
          "type": "uint256"
        }
      ],
      "name": "createToken",
      "outputs": [
        {
          "internalType": "uint256",
          "name": "",
          "type": "uint256"
        }
      ],
      "stateMutability": "payable",
      "type": "function"
    },
    {
      "inputs": [],
      "name": "fetchItemsListed",
      "outputs": [
        {
          "components": [
            {
              "internalType": "uint256",
              "name": "tokenId",
              "type": "uint256"
            },
            {
              "internalType": "address payable",
              "name": "seller",
              "type": "address"
            },
            {
              "internalType": "address payable",
              "name": "owner",
              "type": "address"
            },
            {
              "internalType": "uint256",
              "name": "price",
              "type": "uint256"
            },
            {
              "internalType": "bool",
              "name": "sold",
              "type": "bool"
            }
          ],
          "internalType": "struct NFTMarketplace.MarketItem[]",
          "name": "",
          "type": "tuple[]"
        }
      ],
      "stateMutability": "view",
      "type": "function"
    },
    {
      "inputs": [],
      "name": "fetchMarketItems",
      "outputs": [
        {
          "components": [
            {
              "internalType": "uint256",
              "name": "tokenId",
              "type": "uint256"
            },
            {
              "internalType": "address payable",
              "name": "seller",
              "type": "address"
            },
            {
              "internalType": "address payable",
              "name": "owner",
              "type": "address"
            },
            {
              "internalType": "uint256",
              "name": "price",
              "type": "uint256"
            },
            {
              "internalType": "bool",
              "name": "sold",
              "type": "bool"
            }
          ],
          "internalType": "struct NFTMarketplace.MarketItem[]",
          "name": "",
          "type": "tuple[]"
        }
      ],
      "stateMutability": "view",
      "type": "function"
    },
    {
      "inputs": [],
      "name": "fetchMyNFTs",
      "outputs": [
        {
          "components": [
            {
              "internalType": "uint256",
              "name": "tokenId",
              "type": "uint256"
            },
            {
              "internalType": "address payable",
              "name": "seller",
              "type": "address"
            },
            {
              "internalType": "address payable",
              "name": "owner",
              "type": "address"
            },
            {
              "internalType": "uint256",
              "name": "price",
              "type": "uint256"
            },
            {
              "internalType": "bool",
              "name": "sold",
              "type": "bool"
            }
          ],
          "internalType": "struct NFTMarketplace.MarketItem[]",
          "name": "",
          "type": "tuple[]"
        }
      ],
      "stateMutability": "view",
      "type": "function"
    },
    {
      "inputs": [
        {
          "internalType": "uint256",
          "name": "tokenId",
          "type": "uint256"
        }
      ],
      "name": "getApproved",
      "outputs": [
        {
          "internalType": "address",
          "name": "",
          "type": "address"
        }
      ],
      "stateMutability": "view",
      "type": "function"
    },
    {
      "inputs": [],
      "name": "getListingPrice",
      "outputs": [
        {
          "internalType": "uint256",
          "name": "",
          "type": "uint256"
        }
      ],
      "stateMutability": "view",
      "type": "function"
    },
    {
      "inputs": [
        {
          "internalType": "address",
          "name": "owner",
          "type": "address"
        },
        {
          "internalType": "address",
          "name": "operator",
          "type": "address"
        }
      ],
      "name": "isApprovedForAll",
      "outputs": [
        {
          "internalType": "bool",
          "name": "",
          "type": "bool"
        }
      ],
      "stateMutability": "view",
      "type": "function"
    },
    {
      "inputs": [],
      "name": "name",
      "outputs": [
        {
          "internalType": "string",
          "name": "",
          "type": "string"
        }
      ],
      "stateMutability": "view",
      "type": "function"
    },
    {
      "inputs": [
        {
          "internalType": "uint256",
          "name": "tokenId",
          "type": "uint256"
        }
      ],
      "name": "ownerOf",
      "outputs": [
        {
          "internalType": "address",
          "name": "",
          "type": "address"
        }
      ],
      "stateMutability": "view",
      "type": "function"
    },
    {
      "inputs": [
        {
          "internalType": "uint256",
          "name": "tokenId",
          "type": "uint256"
        },
        {
          "internalType": "uint256",
          "name": "price",
          "type": "uint256"
        }
      ],
      "name": "resellToken",
      "outputs": [],
      "stateMutability": "payable",
      "type": "function"
    },
    {
      "inputs": [
        {
          "internalType": "address",
          "name": "from",
          "type": "address"
        },
        {
          "internalType": "address",
          "name": "to",
          "type": "address"
        },
        {
          "internalType": "uint256",
          "name": "tokenId",
          "type": "uint256"
        }
      ],
      "name": "safeTransferFrom",
      "outputs": [],
      "stateMutability": "nonpayable",
      "type": "function"
    },
    {
      "inputs": [
        {
          "internalType": "address",
          "name": "from",
          "type": "address"
        },
        {
          "internalType": "address",
          "name": "to",
          "type": "address"
        },
        {
          "internalType": "uint256",
          "name": "tokenId",
          "type": "uint256"
        },
        {
          "internalType": "bytes",
          "name": "data",
          "type": "bytes"
        }
      ],
      "name": "safeTransferFrom",
      "outputs": [],
      "stateMutability": "nonpayable",
      "type": "function"
    },
    {
      "inputs": [
        {
          "internalType": "address",
          "name": "operator",
          "type": "address"
        },
        {
          "internalType": "bool",
          "name": "approved",
          "type": "bool"
        }
      ],
      "name": "setApprovalForAll",
      "outputs": [],
      "stateMutability": "nonpayable",
      "type": "function"
    },
    {
      "inputs": [
        {
          "internalType": "bytes4",
          "name": "interfaceId",
          "type": "bytes4"
        }
      ],
      "name": "supportsInterface",
      "outputs": [
        {
          "internalType": "bool",
          "name": "",
          "type": "bool"
        }
      ],
      "stateMutability": "view",
      "type": "function"
    },
    {
      "inputs": [],
      "name": "symbol",
      "outputs": [
        {
          "internalType": "string",
          "name": "",
          "type": "string"
        }
      ],
      "stateMutability": "view",
      "type": "function"
    },
    {
      "inputs": [
        {
          "internalType": "uint256",
          "name": "tokenId",
          "type": "uint256"
        }
      ],
      "name": "tokenURI",
      "outputs": [
        {
          "internalType": "string",
          "name": "",
          "type": "string"
        }
      ],
      "stateMutability": "view",
      "type": "function"
    },
    {
      "inputs": [
        {
          "internalType": "address",
          "name": "from",
          "type": "address"
        },
        {
          "internalType": "address",
          "name": "to",
          "type": "address"
        },
        {
          "internalType": "uint256",
          "name": "tokenId",
          "type": "uint256"
        }
      ],
      "name": "transferFrom",
      "outputs": [],
      "stateMutability": "nonpayable",
      "type": "function"
    },
    {
      "inputs": [
        {
          "internalType": "uint256",
          "name": "_listingPrice",
          "type": "uint256"
        }
      ],
      "name": "updateListingPrice",
      "outputs": [],
      "stateMutability": "payable",
      "type": "function"
    }
  ],
  "bytecode": "0x608060405266038d7ea4c680006009553480156200001c57600080fd5b506040518060400160405280601081526020017f4d657461766572736520546f6b656e73000000000000000000000000000000008152506040518060400160405280600481526020017f4d455441000000000000000000000000000000000000000000000000000000008152508160009080519060200190620000a192919062000104565b508060019080519060200190620000ba92919062000104565b50505033600a60006101000a81548173ffffffffffffffffffffffffffffffffffffffff021916908373ffffffffffffffffffffffffffffffffffffffff16021790555062000219565b8280546200011290620001e3565b90600052602060002090601f01602090048101928262000136576000855562000182565b82601f106200015157805160ff191683800117855562000182565b8280016001018555821562000182579182015b828111156200018157825182559160200191906001019062000164565b5b50905062000191919062000195565b5090565b5b80821115620001b057600081600090555060010162000196565b5090565b7f4e487b7100000000000000000000000000000000000000000000000000000000600052602260045260246000fd5b60006002820490506001821680620001fc57607f821691505b60208210811415620002135762000212620001b4565b5b50919050565b61435380620002296000396000f3fe6080604052600436106101355760003560e01c80636352211e116100ab578063ae677aa31161006f578063ae677aa31461042d578063b88d4fde14610449578063be9af53614610472578063c87b56dd1461048e578063e219fc75146104cb578063e985e9c5146104e757610135565b80636352211e1461032f57806370a082311461036c57806372b3b620146103a957806395d89b41146103d9578063a22cb4651461040457610135565b806312e85585116100fd57806312e8558514610233578063202e37401461025e57806323b872dd14610289578063260070d8146102b257806342842e0e146102db57806345f8fa801461030457610135565b806301ffc9a71461013a57806306fdde0314610177578063081812fc146101a2578063095ea7b3146101df5780630f08efe014610208575b600080fd5b34801561014657600080fd5b50610161600480360381019061015c9190612ce2565b610524565b60405161016e9190612d2a565b60405180910390f35b34801561018357600080fd5b5061018c610606565b6040516101999190612dde565b60405180910390f35b3480156101ae57600080fd5b506101c960048036038101906101c49190612e36565b610698565b6040516101d69190612ea4565b60405180910390f35b3480156101eb57600080fd5b5061020660048036038101906102019190612eeb565b6106de565b005b34801561021457600080fd5b5061021d6107f6565b60405161022a9190613081565b60405180910390f35b34801561023f57600080fd5b50610248610a5f565b60405161025591906130b2565b60405180910390f35b34801561026a57600080fd5b50610273610a69565b6040516102809190613081565b60405180910390f35b34801561029557600080fd5b506102b060048036038101906102ab91906130cd565b610d57565b005b3480156102be57600080fd5b506102d960048036038101906102d49190612e36565b610db7565b005b3480156102e757600080fd5b5061030260048036038101906102fd91906130cd565b611022565b005b34801561031057600080fd5b50610319611042565b6040516103269190613081565b60405180910390f35b34801561033b57600080fd5b5061035660048036038101906103519190612e36565b611330565b6040516103639190612ea4565b60405180910390f35b34801561037857600080fd5b50610393600480360381019061038e9190613120565b6113e2565b6040516103a091906130b2565b60405180910390f35b6103c360048036038101906103be9190613282565b61149a565b6040516103d091906130b2565b60405180910390f35b3480156103e557600080fd5b506103ee6114dc565b6040516103fb9190612dde565b60405180910390f35b34801561041057600080fd5b5061042b6004803603810190610426919061330a565b61156e565b005b61044760048036038101906104429190612e36565b611584565b005b34801561045557600080fd5b50610470600480360381019061046b91906133eb565b61161e565b005b61048c60048036038101906104879190612e36565b611680565b005b34801561049a57600080fd5b506104b560048036038101906104b09190612e36565b6118be565b6040516104c29190612dde565b60405180910390f35b6104e560048036038101906104e0919061346e565b6119d1565b005b3480156104f357600080fd5b5061050e600480360381019061050991906134ae565b611bc6565b60405161051b9190612d2a565b60405180910390f35b60007f80ac58cd000000000000000000000000000000000000000000000000000000007bffffffffffffffffffffffffffffffffffffffffffffffffffffffff1916827bffffffffffffffffffffffffffffffffffffffffffffffffffffffff191614806105ef57507f5b5e139f000000000000000000000000000000000000000000000000000000007bffffffffffffffffffffffffffffffffffffffffffffffffffffffff1916827bffffffffffffffffffffffffffffffffffffffffffffffffffffffff1916145b806105ff57506105fe82611c5a565b5b9050919050565b6060600080546106159061351d565b80601f01602080910402602001604051908101604052809291908181526020018280546106419061351d565b801561068e5780601f106106635761010080835404028352916020019161068e565b820191906000526020600020905b81548152906001019060200180831161067157829003601f168201915b5050505050905090565b60006106a382611cc4565b6004600083815260200190815260200160002060009054906101000a900473ffffffffffffffffffffffffffffffffffffffff169050919050565b60006106e982611330565b90508073ffffffffffffffffffffffffffffffffffffffff168373ffffffffffffffffffffffffffffffffffffffff16141561075a576040517f08c379a0000000000000000000000000000000000000000000000000000000008152600401610751906135c1565b60405180910390fd5b8073ffffffffffffffffffffffffffffffffffffffff16610779611d0f565b73ffffffffffffffffffffffffffffffffffffffff1614806107a857506107a7816107a2611d0f565b611bc6565b5b6107e7576040517f08c379a00000000000000000000000000000000000000000000000000000000081526004016107de90613653565b60405180910390fd5b6107f18383611d17565b505050565b606060006108046007611dd0565b905060006108126008611dd0565b61081c6007611dd0565b61082691906136a2565b90506000808267ffffffffffffffff81111561084557610844613157565b5b60405190808252806020026020018201604052801561087e57816020015b61086b612b76565b8152602001906001900390816108635790505b50905060005b84811015610a54573073ffffffffffffffffffffffffffffffffffffffff16600b60006001846108b491906136d6565b815260200190815260200160002060020160009054906101000a900473ffffffffffffffffffffffffffffffffffffffff1673ffffffffffffffffffffffffffffffffffffffff161415610a4157600060018261091191906136d6565b90506000600b60008381526020019081526020016000209050806040518060a0016040529081600082015481526020016001820160009054906101000a900473ffffffffffffffffffffffffffffffffffffffff1673ffffffffffffffffffffffffffffffffffffffff1673ffffffffffffffffffffffffffffffffffffffff1681526020016002820160009054906101000a900473ffffffffffffffffffffffffffffffffffffffff1673ffffffffffffffffffffffffffffffffffffffff1673ffffffffffffffffffffffffffffffffffffffff168152602001600382015481526020016004820160009054906101000a900460ff161515151581525050848681518110610a2457610a2361372c565b5b6020026020010181905250600185610a3c91906136d6565b945050505b8080610a4c9061375b565b915050610884565b508094505050505090565b6000600954905090565b60606000610a776007611dd0565b905060008060005b83811015610b20573373ffffffffffffffffffffffffffffffffffffffff16600b6000600184610aaf91906136d6565b815260200190815260200160002060020160009054906101000a900473ffffffffffffffffffffffffffffffffffffffff1673ffffffffffffffffffffffffffffffffffffffff161415610b0d57600183610b0a91906136d6565b92505b8080610b189061375b565b915050610a7f565b5060008267ffffffffffffffff811115610b3d57610b3c613157565b5b604051908082528060200260200182016040528015610b7657816020015b610b63612b76565b815260200190600190039081610b5b5790505b50905060005b84811015610d4c573373ffffffffffffffffffffffffffffffffffffffff16600b6000600184610bac91906136d6565b815260200190815260200160002060020160009054906101000a900473ffffffffffffffffffffffffffffffffffffffff1673ffffffffffffffffffffffffffffffffffffffff161415610d39576000600182610c0991906136d6565b90506000600b60008381526020019081526020016000209050806040518060a0016040529081600082015481526020016001820160009054906101000a900473ffffffffffffffffffffffffffffffffffffffff1673ffffffffffffffffffffffffffffffffffffffff1673ffffffffffffffffffffffffffffffffffffffff1681526020016002820160009054906101000a900473ffffffffffffffffffffffffffffffffffffffff1673ffffffffffffffffffffffffffffffffffffffff1673ffffffffffffffffffffffffffffffffffffffff168152602001600382015481526020016004820160009054906101000a900460ff161515151581525050848681518110610d1c57610d1b61372c565b5b6020026020010181905250600185610d3491906136d6565b945050505b8080610d449061375b565b915050610b7c565b508094505050505090565b610d68610d62611d0f565b82611dde565b610da7576040517f08c379a0000000000000000000000000000000000000000000000000000000008152600401610d9e90613816565b60405180910390fd5b610db2838383611e73565b505050565b3373ffffffffffffffffffffffffffffffffffffffff16600b600083815260200190815260200160002060010160009054906101000a900473ffffffffffffffffffffffffffffffffffffffff1673ffffffffffffffffffffffffffffffffffffffff1614610e5b576040517f08c379a0000000000000000000000000000000000000000000000000000000008152600401610e52906138a8565b60405180910390fd5b60001515600b600083815260200190815260200160002060040160009054906101000a900460ff16151514610ec5576040517f08c379a0000000000000000000000000000000000000000000000000000000008152600401610ebc9061393a565b60405180910390fd5b33600b600083815260200190815260200160002060020160006101000a81548173ffffffffffffffffffffffffffffffffffffffff021916908373ffffffffffffffffffffffffffffffffffffffff1602179055506000600b600083815260200190815260200160002060010160006101000a81548173ffffffffffffffffffffffffffffffffffffffff021916908373ffffffffffffffffffffffffffffffffffffffff1602179055506001600b600083815260200190815260200160002060040160006101000a81548160ff021916908315150217905550610fa960086120da565b600a60009054906101000a900473ffffffffffffffffffffffffffffffffffffffff1673ffffffffffffffffffffffffffffffffffffffff166108fc6009549081150290604051600060405180830381858888f19350505050158015611013573d6000803e3d6000fd5b5061101f303383611e73565b50565b61103d8383836040518060200160405280600081525061161e565b505050565b606060006110506007611dd0565b905060008060005b838110156110f9573373ffffffffffffffffffffffffffffffffffffffff16600b600060018461108891906136d6565b815260200190815260200160002060010160009054906101000a900473ffffffffffffffffffffffffffffffffffffffff1673ffffffffffffffffffffffffffffffffffffffff1614156110e6576001836110e391906136d6565b92505b80806110f19061375b565b915050611058565b5060008267ffffffffffffffff81111561111657611115613157565b5b60405190808252806020026020018201604052801561114f57816020015b61113c612b76565b8152602001906001900390816111345790505b50905060005b84811015611325573373ffffffffffffffffffffffffffffffffffffffff16600b600060018461118591906136d6565b815260200190815260200160002060010160009054906101000a900473ffffffffffffffffffffffffffffffffffffffff1673ffffffffffffffffffffffffffffffffffffffff1614156113125760006001826111e291906136d6565b90506000600b60008381526020019081526020016000209050806040518060a0016040529081600082015481526020016001820160009054906101000a900473ffffffffffffffffffffffffffffffffffffffff1673ffffffffffffffffffffffffffffffffffffffff1673ffffffffffffffffffffffffffffffffffffffff1681526020016002820160009054906101000a900473ffffffffffffffffffffffffffffffffffffffff1673ffffffffffffffffffffffffffffffffffffffff1673ffffffffffffffffffffffffffffffffffffffff168152602001600382015481526020016004820160009054906101000a900460ff1615151515815250508486815181106112f5576112f461372c565b5b602002602001018190525060018561130d91906136d6565b945050505b808061131d9061375b565b915050611155565b508094505050505090565b6000806002600084815260200190815260200160002060009054906101000a900473ffffffffffffffffffffffffffffffffffffffff169050600073ffffffffffffffffffffffffffffffffffffffff168173ffffffffffffffffffffffffffffffffffffffff1614156113d9576040517f08c379a00000000000000000000000000000000000000000000000000000000081526004016113d0906139a6565b60405180910390fd5b80915050919050565b60008073ffffffffffffffffffffffffffffffffffffffff168273ffffffffffffffffffffffffffffffffffffffff161415611453576040517f08c379a000000000000000000000000000000000000000000000000000000000815260040161144a90613a38565b60405180910390fd5b600360008373ffffffffffffffffffffffffffffffffffffffff1673ffffffffffffffffffffffffffffffffffffffff168152602001908152602001600020549050919050565b60006114a660076120da565b60006114b26007611dd0565b90506114be33826120f0565b6114c881856122ca565b6114d2818461233e565b8091505092915050565b6060600180546114eb9061351d565b80601f01602080910402602001604051908101604052809291908181526020018280546115179061351d565b80156115645780601f1061153957610100808354040283529160200191611564565b820191906000526020600020905b81548152906001019060200180831161154757829003601f168201915b5050505050905090565b611580611579611d0f565b8383612541565b5050565b3373ffffffffffffffffffffffffffffffffffffffff16600a60009054906101000a900473ffffffffffffffffffffffffffffffffffffffff1673ffffffffffffffffffffffffffffffffffffffff1614611614576040517f08c379a000000000000000000000000000000000000000000000000000000000815260040161160b90613aca565b60405180910390fd5b8060098190555050565b61162f611629611d0f565b83611dde565b61166e576040517f08c379a000000000000000000000000000000000000000000000000000000000815260040161166590613816565b60405180910390fd5b61167a848484846126ae565b50505050565b6000600b60008381526020019081526020016000206003015490506000600b600084815260200190815260200160002060010160009054906101000a900473ffffffffffffffffffffffffffffffffffffffff169050813414611718576040517f08c379a000000000000000000000000000000000000000000000000000000000815260040161170f90613b5c565b60405180910390fd5b33600b600085815260200190815260200160002060020160006101000a81548173ffffffffffffffffffffffffffffffffffffffff021916908373ffffffffffffffffffffffffffffffffffffffff1602179055506001600b600085815260200190815260200160002060040160006101000a81548160ff0219169083151502179055506000600b600085815260200190815260200160002060010160006101000a81548173ffffffffffffffffffffffffffffffffffffffff021916908373ffffffffffffffffffffffffffffffffffffffff1602179055506117fc60086120da565b611807303385611e73565b600a60009054906101000a900473ffffffffffffffffffffffffffffffffffffffff1673ffffffffffffffffffffffffffffffffffffffff166108fc6009549081150290604051600060405180830381858888f19350505050158015611871573d6000803e3d6000fd5b508073ffffffffffffffffffffffffffffffffffffffff166108fc349081150290604051600060405180830381858888f193505050501580156118b8573d6000803e3d6000fd5b50505050565b60606118c982611cc4565b60006006600084815260200190815260200160002080546118e99061351d565b80601f01602080910402602001604051908101604052809291908181526020018280546119159061351d565b80156119625780601f1061193757610100808354040283529160200191611962565b820191906000526020600020905b81548152906001019060200180831161194557829003601f168201915b50505050509050600061197361270a565b90506000815114156119895781925050506119cc565b6000825111156119be5780826040516020016119a6929190613bb8565b604051602081830303815290604052925050506119cc565b6119c784612721565b925050505b919050565b3373ffffffffffffffffffffffffffffffffffffffff16600b600084815260200190815260200160002060020160009054906101000a900473ffffffffffffffffffffffffffffffffffffffff1673ffffffffffffffffffffffffffffffffffffffff1614611a75576040517f08c379a0000000000000000000000000000000000000000000000000000000008152600401611a6c90613c4e565b60405180910390fd5b6009543414611ab9576040517f08c379a0000000000000000000000000000000000000000000000000000000008152600401611ab090613ce0565b60405180910390fd5b6000600b600084815260200190815260200160002060040160006101000a81548160ff02191690831515021790555080600b60008481526020019081526020016000206003018190555033600b600084815260200190815260200160002060010160006101000a81548173ffffffffffffffffffffffffffffffffffffffff021916908373ffffffffffffffffffffffffffffffffffffffff16021790555030600b600084815260200190815260200160002060020160006101000a81548173ffffffffffffffffffffffffffffffffffffffff021916908373ffffffffffffffffffffffffffffffffffffffff160217905550611bb76008612789565b611bc2333084611e73565b5050565b6000600560008473ffffffffffffffffffffffffffffffffffffffff1673ffffffffffffffffffffffffffffffffffffffff16815260200190815260200160002060008373ffffffffffffffffffffffffffffffffffffffff1673ffffffffffffffffffffffffffffffffffffffff16815260200190815260200160002060009054906101000a900460ff16905092915050565b60007f01ffc9a7000000000000000000000000000000000000000000000000000000007bffffffffffffffffffffffffffffffffffffffffffffffffffffffff1916827bffffffffffffffffffffffffffffffffffffffffffffffffffffffff1916149050919050565b611ccd816127e5565b611d0c576040517f08c379a0000000000000000000000000000000000000000000000000000000008152600401611d03906139a6565b60405180910390fd5b50565b600033905090565b816004600083815260200190815260200160002060006101000a81548173ffffffffffffffffffffffffffffffffffffffff021916908373ffffffffffffffffffffffffffffffffffffffff160217905550808273ffffffffffffffffffffffffffffffffffffffff16611d8a83611330565b73ffffffffffffffffffffffffffffffffffffffff167f8c5be1e5ebec7d5bd14f71427d1e84f3dd0314c0f7b2291e5b200ac8c7c3b92560405160405180910390a45050565b600081600001549050919050565b600080611dea83611330565b90508073ffffffffffffffffffffffffffffffffffffffff168473ffffffffffffffffffffffffffffffffffffffff161480611e2c5750611e2b8185611bc6565b5b80611e6a57508373ffffffffffffffffffffffffffffffffffffffff16611e5284610698565b73ffffffffffffffffffffffffffffffffffffffff16145b91505092915050565b8273ffffffffffffffffffffffffffffffffffffffff16611e9382611330565b73ffffffffffffffffffffffffffffffffffffffff1614611ee9576040517f08c379a0000000000000000000000000000000000000000000000000000000008152600401611ee090613d72565b60405180910390fd5b600073ffffffffffffffffffffffffffffffffffffffff168273ffffffffffffffffffffffffffffffffffffffff161415611f59576040517f08c379a0000000000000000000000000000000000000000000000000000000008152600401611f5090613e04565b60405180910390fd5b611f64838383612851565b611f6f600082611d17565b6001600360008573ffffffffffffffffffffffffffffffffffffffff1673ffffffffffffffffffffffffffffffffffffffff1681526020019081526020016000206000828254611fbf91906136a2565b925050819055506001600360008473ffffffffffffffffffffffffffffffffffffffff1673ffffffffffffffffffffffffffffffffffffffff168152602001908152602001600020600082825461201691906136d6565b92505081905550816002600083815260200190815260200160002060006101000a81548173ffffffffffffffffffffffffffffffffffffffff021916908373ffffffffffffffffffffffffffffffffffffffff160217905550808273ffffffffffffffffffffffffffffffffffffffff168473ffffffffffffffffffffffffffffffffffffffff167fddf252ad1be2c89b69c2b068fc378daa952ba7f163c4a11628f55a4df523b3ef60405160405180910390a46120d5838383612856565b505050565b6001816000016000828254019250508190555050565b600073ffffffffffffffffffffffffffffffffffffffff168273ffffffffffffffffffffffffffffffffffffffff161415612160576040517f08c379a000000000000000000000000000000000000000000000000000000000815260040161215790613e70565b60405180910390fd5b612169816127e5565b156121a9576040517f08c379a00000000000000000000000000000000000000000000000000000000081526004016121a090613edc565b60405180910390fd5b6121b560008383612851565b6001600360008473ffffffffffffffffffffffffffffffffffffffff1673ffffffffffffffffffffffffffffffffffffffff168152602001908152602001600020600082825461220591906136d6565b92505081905550816002600083815260200190815260200160002060006101000a81548173ffffffffffffffffffffffffffffffffffffffff021916908373ffffffffffffffffffffffffffffffffffffffff160217905550808273ffffffffffffffffffffffffffffffffffffffff16600073ffffffffffffffffffffffffffffffffffffffff167fddf252ad1be2c89b69c2b068fc378daa952ba7f163c4a11628f55a4df523b3ef60405160405180910390a46122c660008383612856565b5050565b6122d3826127e5565b612312576040517f08c379a000000000000000000000000000000000000000000000000000000000815260040161230990613f6e565b60405180910390fd5b80600660008481526020019081526020016000209080519060200190612339929190612bd3565b505050565b60008111612381576040517f08c379a000000000000000000000000000000000000000000000000000000000815260040161237890613fda565b60405180910390fd5b60095434146123c5576040517f08c379a00000000000000000000000000000000000000000000000000000000081526004016123bc90613ce0565b60405180910390fd5b6040518060a001604052808381526020013373ffffffffffffffffffffffffffffffffffffffff1681526020013073ffffffffffffffffffffffffffffffffffffffff16815260200182815260200160001515815250600b60008481526020019081526020016000206000820151816000015560208201518160010160006101000a81548173ffffffffffffffffffffffffffffffffffffffff021916908373ffffffffffffffffffffffffffffffffffffffff16021790555060408201518160020160006101000a81548173ffffffffffffffffffffffffffffffffffffffff021916908373ffffffffffffffffffffffffffffffffffffffff1602179055506060820151816003015560808201518160040160006101000a81548160ff0219169083151502179055509050506124fe333084611e73565b817fb640004f1d14576d0c209e240cad0410e0d8c0c33a09375861fbadae2588a98d33308460006040516125359493929190613ffa565b60405180910390a25050565b8173ffffffffffffffffffffffffffffffffffffffff168373ffffffffffffffffffffffffffffffffffffffff1614156125b0576040517f08c379a00000000000000000000000000000000000000000000000000000000081526004016125a79061408b565b60405180910390fd5b80600560008573ffffffffffffffffffffffffffffffffffffffff1673ffffffffffffffffffffffffffffffffffffffff16815260200190815260200160002060008473ffffffffffffffffffffffffffffffffffffffff1673ffffffffffffffffffffffffffffffffffffffff16815260200190815260200160002060006101000a81548160ff0219169083151502179055508173ffffffffffffffffffffffffffffffffffffffff168373ffffffffffffffffffffffffffffffffffffffff167f17307eab39ab6107e8899845ad3d59bd9653f200f220920489ca2b5937696c31836040516126a19190612d2a565b60405180910390a3505050565b6126b9848484611e73565b6126c58484848461285b565b612704576040517f08c379a00000000000000000000000000000000000000000000000000000000081526004016126fb9061411d565b60405180910390fd5b50505050565b606060405180602001604052806000815250905090565b606061272c82611cc4565b600061273661270a565b905060008151116127565760405180602001604052806000815250612781565b80612760846129f2565b604051602001612771929190613bb8565b6040516020818303038152906040525b915050919050565b600081600001549050600081116127d5576040517f08c379a00000000000000000000000000000000000000000000000000000000081526004016127cc90614189565b60405180910390fd5b6001810382600001819055505050565b60008073ffffffffffffffffffffffffffffffffffffffff166002600084815260200190815260200160002060009054906101000a900473ffffffffffffffffffffffffffffffffffffffff1673ffffffffffffffffffffffffffffffffffffffff1614159050919050565b505050565b505050565b600061287c8473ffffffffffffffffffffffffffffffffffffffff16612b53565b156129e5578373ffffffffffffffffffffffffffffffffffffffff1663150b7a026128a5611d0f565b8786866040518563ffffffff1660e01b81526004016128c794939291906141fe565b602060405180830381600087803b1580156128e157600080fd5b505af192505050801561291257506040513d601f19601f8201168201806040525081019061290f919061425f565b60015b612995573d8060008114612942576040519150601f19603f3d011682016040523d82523d6000602084013e612947565b606091505b5060008151141561298d576040517f08c379a00000000000000000000000000000000000000000000000000000000081526004016129849061411d565b60405180910390fd5b805181602001fd5b63150b7a0260e01b7bffffffffffffffffffffffffffffffffffffffffffffffffffffffff1916817bffffffffffffffffffffffffffffffffffffffffffffffffffffffff1916149150506129ea565b600190505b949350505050565b60606000821415612a3a576040518060400160405280600181526020017f30000000000000000000000000000000000000000000000000000000000000008152509050612b4e565b600082905060005b60008214612a6c578080612a559061375b565b915050600a82612a6591906142bb565b9150612a42565b60008167ffffffffffffffff811115612a8857612a87613157565b5b6040519080825280601f01601f191660200182016040528015612aba5781602001600182028036833780820191505090505b5090505b60008514612b4757600182612ad391906136a2565b9150600a85612ae291906142ec565b6030612aee91906136d6565b60f81b818381518110612b0457612b0361372c565b5b60200101907effffffffffffffffffffffffffffffffffffffffffffffffffffffffffffff1916908160001a905350600a85612b4091906142bb565b9450612abe565b8093505050505b919050565b6000808273ffffffffffffffffffffffffffffffffffffffff163b119050919050565b6040518060a0016040528060008152602001600073ffffffffffffffffffffffffffffffffffffffff168152602001600073ffffffffffffffffffffffffffffffffffffffff168152602001600081526020016000151581525090565b828054612bdf9061351d565b90600052602060002090601f016020900481019282612c015760008555612c48565b82601f10612c1a57805160ff1916838001178555612c48565b82800160010185558215612c48579182015b82811115612c47578251825591602001919060010190612c2c565b5b509050612c559190612c59565b5090565b5b80821115612c72576000816000905550600101612c5a565b5090565b6000604051905090565b600080fd5b600080fd5b60007fffffffff0000000000000000000000000000000000000000000000000000000082169050919050565b612cbf81612c8a565b8114612cca57600080fd5b50565b600081359050612cdc81612cb6565b92915050565b600060208284031215612cf857612cf7612c80565b5b6000612d0684828501612ccd565b91505092915050565b60008115159050919050565b612d2481612d0f565b82525050565b6000602082019050612d3f6000830184612d1b565b92915050565b600081519050919050565b600082825260208201905092915050565b60005b83811015612d7f578082015181840152602081019050612d64565b83811115612d8e576000848401525b50505050565b6000601f19601f8301169050919050565b6000612db082612d45565b612dba8185612d50565b9350612dca818560208601612d61565b612dd381612d94565b840191505092915050565b60006020820190508181036000830152612df88184612da5565b905092915050565b6000819050919050565b612e1381612e00565b8114612e1e57600080fd5b50565b600081359050612e3081612e0a565b92915050565b600060208284031215612e4c57612e4b612c80565b5b6000612e5a84828501612e21565b91505092915050565b600073ffffffffffffffffffffffffffffffffffffffff82169050919050565b6000612e8e82612e63565b9050919050565b612e9e81612e83565b82525050565b6000602082019050612eb96000830184612e95565b92915050565b612ec881612e83565b8114612ed357600080fd5b50565b600081359050612ee581612ebf565b92915050565b60008060408385031215612f0257612f01612c80565b5b6000612f1085828601612ed6565b9250506020612f2185828601612e21565b9150509250929050565b600081519050919050565b600082825260208201905092915050565b6000819050602082019050919050565b612f6081612e00565b82525050565b6000612f7182612e63565b9050919050565b612f8181612f66565b82525050565b612f9081612d0f565b82525050565b60a082016000820151612fac6000850182612f57565b506020820151612fbf6020850182612f78565b506040820151612fd26040850182612f78565b506060820151612fe56060850182612f57565b506080820151612ff86080850182612f87565b50505050565b600061300a8383612f96565b60a08301905092915050565b6000602082019050919050565b600061302e82612f2b565b6130388185612f36565b935061304383612f47565b8060005b8381101561307457815161305b8882612ffe565b975061306683613016565b925050600181019050613047565b5085935050505092915050565b6000602082019050818103600083015261309b8184613023565b905092915050565b6130ac81612e00565b82525050565b60006020820190506130c760008301846130a3565b92915050565b6000806000606084860312156130e6576130e5612c80565b5b60006130f486828701612ed6565b935050602061310586828701612ed6565b925050604061311686828701612e21565b9150509250925092565b60006020828403121561313657613135612c80565b5b600061314484828501612ed6565b91505092915050565b600080fd5b600080fd5b7f4e487b7100000000000000000000000000000000000000000000000000000000600052604160045260246000fd5b61318f82612d94565b810181811067ffffffffffffffff821117156131ae576131ad613157565b5b80604052505050565b60006131c1612c76565b90506131cd8282613186565b919050565b600067ffffffffffffffff8211156131ed576131ec613157565b5b6131f682612d94565b9050602081019050919050565b82818337600083830152505050565b6000613225613220846131d2565b6131b7565b90508281526020810184848401111561324157613240613152565b5b61324c848285613203565b509392505050565b600082601f8301126132695761326861314d565b5b8135613279848260208601613212565b91505092915050565b6000806040838503121561329957613298612c80565b5b600083013567ffffffffffffffff8111156132b7576132b6612c85565b5b6132c385828601613254565b92505060206132d485828601612e21565b9150509250929050565b6132e781612d0f565b81146132f257600080fd5b50565b600081359050613304816132de565b92915050565b6000806040838503121561332157613320612c80565b5b600061332f85828601612ed6565b9250506020613340858286016132f5565b9150509250929050565b600067ffffffffffffffff82111561336557613364613157565b5b61336e82612d94565b9050602081019050919050565b600061338e6133898461334a565b6131b7565b9050828152602081018484840111156133aa576133a9613152565b5b6133b5848285613203565b509392505050565b600082601f8301126133d2576133d161314d565b5b81356133e284826020860161337b565b91505092915050565b6000806000806080858703121561340557613404612c80565b5b600061341387828801612ed6565b945050602061342487828801612ed6565b935050604061343587828801612e21565b925050606085013567ffffffffffffffff81111561345657613455612c85565b5b613462878288016133bd565b91505092959194509250565b6000806040838503121561348557613484612c80565b5b600061349385828601612e21565b92505060206134a485828601612e21565b9150509250929050565b600080604083850312156134c5576134c4612c80565b5b60006134d385828601612ed6565b92505060206134e485828601612ed6565b9150509250929050565b7f4e487b7100000000000000000000000000000000000000000000000000000000600052602260045260246000fd5b6000600282049050600182168061353557607f821691505b60208210811415613549576135486134ee565b5b50919050565b7f4552433732313a20617070726f76616c20746f2063757272656e74206f776e6560008201527f7200000000000000000000000000000000000000000000000000000000000000602082015250565b60006135ab602183612d50565b91506135b68261354f565b604082019050919050565b600060208201905081810360008301526135da8161359e565b9050919050565b7f4552433732313a20617070726f76652063616c6c6572206973206e6f7420746f60008201527f6b656e206f776e6572206e6f7220617070726f76656420666f7220616c6c0000602082015250565b600061363d603e83612d50565b9150613648826135e1565b604082019050919050565b6000602082019050818103600083015261366c81613630565b9050919050565b7f4e487b7100000000000000000000000000000000000000000000000000000000600052601160045260246000fd5b60006136ad82612e00565b91506136b883612e00565b9250828210156136cb576136ca613673565b5b828203905092915050565b60006136e182612e00565b91506136ec83612e00565b9250827fffffffffffffffffffffffffffffffffffffffffffffffffffffffffffffffff0382111561372157613720613673565b5b828201905092915050565b7f4e487b7100000000000000000000000000000000000000000000000000000000600052603260045260246000fd5b600061376682612e00565b91507fffffffffffffffffffffffffffffffffffffffffffffffffffffffffffffffff82141561379957613798613673565b5b600182019050919050565b7f4552433732313a2063616c6c6572206973206e6f7420746f6b656e206f776e6560008201527f72206e6f7220617070726f766564000000000000000000000000000000000000602082015250565b6000613800602e83612d50565b915061380b826137a4565b604082019050919050565b6000602082019050818103600083015261382f816137f3565b9050919050565b7f4f6e6c79206974656d2073656c6c65722063616e20706572666f726d2074686960008201527f73206f7065726174696f6e000000000000000000000000000000000000000000602082015250565b6000613892602b83612d50565b915061389d82613836565b604082019050919050565b600060208201905081810360008301526138c181613885565b9050919050565b7f4f6e6c792063616e63656c206974656d7320776869636820617265206e6f742060008201527f736f6c6420796574000000000000000000000000000000000000000000000000602082015250565b6000613924602883612d50565b915061392f826138c8565b604082019050919050565b6000602082019050818103600083015261395381613917565b9050919050565b7f4552433732313a20696e76616c696420746f6b656e2049440000000000000000600082015250565b6000613990601883612d50565b915061399b8261395a565b602082019050919050565b600060208201905081810360008301526139bf81613983565b9050919050565b7f4552433732313a2061646472657373207a65726f206973206e6f74206120766160008201527f6c6964206f776e65720000000000000000000000000000000000000000000000602082015250565b6000613a22602983612d50565b9150613a2d826139c6565b604082019050919050565b60006020820190508181036000830152613a5181613a15565b9050919050565b7f4f6e6c79206d61726b6574706c616365206f776e65722063616e20757064617460008201527f65206c697374696e672070726963650000000000000000000000000000000000602082015250565b6000613ab4602f83612d50565b9150613abf82613a58565b604082019050919050565b60006020820190508181036000830152613ae381613aa7565b9050919050565b7f506c65617365207375626d6974207468652061736b696e67207072696365206960008201527f6e206f7264657220746f20636f6d706c65746520746865207075726368617365602082015250565b6000613b46604083612d50565b9150613b5182613aea565b604082019050919050565b60006020820190508181036000830152613b7581613b39565b9050919050565b600081905092915050565b6000613b9282612d45565b613b9c8185613b7c565b9350613bac818560208601612d61565b80840191505092915050565b6000613bc48285613b87565b9150613bd08284613b87565b91508190509392505050565b7f4f6e6c79206974656d206f776e65722063616e20706572666f726d207468697360008201527f206f7065726174696f6e00000000000000000000000000000000000000000000602082015250565b6000613c38602a83612d50565b9150613c4382613bdc565b604082019050919050565b60006020820190508181036000830152613c6781613c2b565b9050919050565b7f5072696365206d75737420626520657175616c20746f206c697374696e67207060008201527f7269636500000000000000000000000000000000000000000000000000000000602082015250565b6000613cca602483612d50565b9150613cd582613c6e565b604082019050919050565b60006020820190508181036000830152613cf981613cbd565b9050919050565b7f4552433732313a207472616e736665722066726f6d20696e636f72726563742060008201527f6f776e6572000000000000000000000000000000000000000000000000000000602082015250565b6000613d5c602583612d50565b9150613d6782613d00565b604082019050919050565b60006020820190508181036000830152613d8b81613d4f565b9050919050565b7f4552433732313a207472616e7366657220746f20746865207a65726f2061646460008201527f7265737300000000000000000000000000000000000000000000000000000000602082015250565b6000613dee602483612d50565b9150613df982613d92565b604082019050919050565b60006020820190508181036000830152613e1d81613de1565b9050919050565b7f4552433732313a206d696e7420746f20746865207a65726f2061646472657373600082015250565b6000613e5a602083612d50565b9150613e6582613e24565b602082019050919050565b60006020820190508181036000830152613e8981613e4d565b9050919050565b7f4552433732313a20746f6b656e20616c7265616479206d696e74656400000000600082015250565b6000613ec6601c83612d50565b9150613ed182613e90565b602082019050919050565b60006020820190508181036000830152613ef581613eb9565b9050919050565b7f45524337323155524953746f726167653a2055524920736574206f66206e6f6e60008201527f6578697374656e7420746f6b656e000000000000000000000000000000000000602082015250565b6000613f58602e83612d50565b9150613f6382613efc565b604082019050919050565b60006020820190508181036000830152613f8781613f4b565b9050919050565b7f5072696365206d7573742062652067726561746572207468616e207a65726f00600082015250565b6000613fc4601f83612d50565b9150613fcf82613f8e565b602082019050919050565b60006020820190508181036000830152613ff381613fb7565b9050919050565b600060808201905061400f6000830187612e95565b61401c6020830186612e95565b61402960408301856130a3565b6140366060830184612d1b565b95945050505050565b7f4552433732313a20617070726f766520746f2063616c6c657200000000000000600082015250565b6000614075601983612d50565b91506140808261403f565b602082019050919050565b600060208201905081810360008301526140a481614068565b9050919050565b7f4552433732313a207472616e7366657220746f206e6f6e20455243373231526560008201527f63656976657220696d706c656d656e7465720000000000000000000000000000602082015250565b6000614107603283612d50565b9150614112826140ab565b604082019050919050565b60006020820190508181036000830152614136816140fa565b9050919050565b7f436f756e7465723a2064656372656d656e74206f766572666c6f770000000000600082015250565b6000614173601b83612d50565b915061417e8261413d565b602082019050919050565b600060208201905081810360008301526141a281614166565b9050919050565b600081519050919050565b600082825260208201905092915050565b60006141d0826141a9565b6141da81856141b4565b93506141ea818560208601612d61565b6141f381612d94565b840191505092915050565b60006080820190506142136000830187612e95565b6142206020830186612e95565b61422d60408301856130a3565b818103606083015261423f81846141c5565b905095945050505050565b60008151905061425981612cb6565b92915050565b60006020828403121561427557614274612c80565b5b60006142838482850161424a565b91505092915050565b7f4e487b7100000000000000000000000000000000000000000000000000000000600052601260045260246000fd5b60006142c682612e00565b91506142d183612e00565b9250826142e1576142e061428c565b5b828204905092915050565b60006142f782612e00565b915061430283612e00565b9250826143125761431161428c565b5b82820690509291505056fea2646970667358221220a53f0605da353cd04c4a2f3e850668217ec8313c817db549940d7b0f1ea974b164736f6c63430008090033",
  "linkReferences": {},
  "deployedLinkReferences": {}
}